{
  "_format": "hh-sol-artifact-1",
  "contractName": "Tracking",
  "sourceName": "contracts/Tracking.sol",
  "abi": [
    {
      "inputs": [],
      "stateMutability": "nonpayable",
      "type": "constructor"
    },
    {
      "anonymous": false,
      "inputs": [
        {
          "indexed": true,
          "internalType": "uint256",
          "name": "productId",
          "type": "uint256"
        },
        {
          "indexed": true,
          "internalType": "address",
          "name": "sender",
          "type": "address"
        },
        {
          "indexed": true,
          "internalType": "address",
          "name": "reciver",
          "type": "address"
        },
        {
          "indexed": false,
          "internalType": "uint256",
          "name": "status",
          "type": "uint256"
        }
      ],
      "name": "ShipmentUpdate",
      "type": "event"
    },
    {
      "inputs": [
        {
          "internalType": "string",
          "name": "rawMaterial",
          "type": "string"
        },
        {
          "internalType": "string",
          "name": "farmerName",
          "type": "string"
        },
        {
          "internalType": "string",
          "name": "location",
          "type": "string"
        },
        {
          "internalType": "uint256",
          "name": "quantity",
          "type": "uint256"
        },
        {
          "internalType": "uint256",
          "name": "costPerKg",
          "type": "uint256"
        },
        {
          "internalType": "address",
          "name": "manufacturer",
          "type": "address"
        },
        {
          "internalType": "address",
          "name": "shipper",
          "type": "address"
        },
        {
          "internalType": "address",
          "name": "supplier",
          "type": "address"
        }
      ],
      "name": "addProduct",
      "outputs": [],
      "stateMutability": "nonpayable",
      "type": "function"
    },
    {
      "inputs": [
        {
          "internalType": "uint256",
          "name": "productId",
          "type": "uint256"
        }
      ],
      "name": "getInfo",
      "outputs": [
        {
          "internalType": "string",
          "name": "rawMaterial",
          "type": "string"
        },
        {
          "internalType": "string",
          "name": "farmerName",
          "type": "string"
        },
        {
          "internalType": "string",
          "name": "location",
          "type": "string"
        },
        {
          "internalType": "uint256",
          "name": "quantity",
          "type": "uint256"
        },
        {
          "internalType": "uint256",
          "name": "costPerKg",
          "type": "uint256"
        },
        {
          "internalType": "address",
          "name": "manufacturer",
          "type": "address"
        },
        {
          "internalType": "address",
          "name": "shipper",
          "type": "address"
        },
        {
          "internalType": "address",
          "name": "supplier",
          "type": "address"
        }
      ],
      "stateMutability": "view",
      "type": "function"
    },
    {
      "inputs": [
        {
          "internalType": "uint256",
          "name": "productId",
          "type": "uint256"
        }
      ],
      "name": "getRawMaterials",
      "outputs": [
        {
          "internalType": "string",
          "name": "",
          "type": "string"
        }
      ],
      "stateMutability": "view",
      "type": "function"
    },
    {
      "inputs": [
        {
          "internalType": "uint256",
          "name": "productId",
          "type": "uint256"
        }
      ],
      "name": "getStatus",
      "outputs": [
        {
          "internalType": "uint256",
          "name": "",
          "type": "uint256"
        }
      ],
      "stateMutability": "view",
      "type": "function"
    },
    {
      "inputs": [],
      "name": "getTotalProducts",
      "outputs": [
        {
          "internalType": "uint256",
          "name": "",
          "type": "uint256"
        }
      ],
      "stateMutability": "view",
      "type": "function"
    },
    {
      "inputs": [
        {
          "internalType": "uint256",
          "name": "productId",
          "type": "uint256"
        },
        {
          "internalType": "address",
          "name": "shpr",
          "type": "address"
        }
      ],
      "name": "pickPackage",
      "outputs": [],
      "stateMutability": "nonpayable",
      "type": "function"
    },
    {
      "inputs": [
        {
          "internalType": "uint256",
          "name": "",
          "type": "uint256"
        }
      ],
      "name": "products",
      "outputs": [
        {
          "internalType": "string",
          "name": "rawMaterial",
          "type": "string"
        },
        {
          "internalType": "string",
          "name": "farmerName",
          "type": "string"
        },
        {
          "internalType": "string",
          "name": "location",
          "type": "string"
        },
        {
          "internalType": "uint256",
          "name": "quantity",
          "type": "uint256"
        },
        {
          "internalType": "uint256",
          "name": "costPerKg",
          "type": "uint256"
        },
        {
          "internalType": "address",
          "name": "manufacturer",
          "type": "address"
        },
        {
          "internalType": "address",
          "name": "shipper",
          "type": "address"
        },
        {
          "internalType": "address",
          "name": "supplier",
          "type": "address"
        },
        {
          "internalType": "enum Tracking.PackageStatus",
          "name": "status",
          "type": "uint8"
        }
      ],
      "stateMutability": "view",
      "type": "function"
    },
    {
      "inputs": [
        {
          "internalType": "uint256",
          "name": "productId",
          "type": "uint256"
        },
        {
          "internalType": "address",
          "name": "supl",
          "type": "address"
        }
      ],
      "name": "receivedPackage",
      "outputs": [],
      "stateMutability": "nonpayable",
      "type": "function"
    },
    {
      "inputs": [],
      "name": "totalProducts",
      "outputs": [
        {
          "internalType": "uint256",
          "name": "",
          "type": "uint256"
        }
      ],
      "stateMutability": "view",
      "type": "function"
    }
  ],
  "bytecode": "0x608060405234801561001057600080fd5b506000600181905550611ac8806100286000396000f3fe608060405234801561001057600080fd5b50600436106100935760003560e01c80637acc0b20116100665780637acc0b201461013957806395941bb7146101715780639b9d326d1461018d578063be28a879146101ab578063fbe77211146101db57610093565b80631a3cd59a1461009857806328694afe146100cf578063570aea8a146100eb5780635c622a0e14610109575b600080fd5b6100b260048036038101906100ad9190610f40565b6101f7565b6040516100c698979695949392919061104d565b60405180910390f35b6100e960048036038101906100e4919061110c565b610570565b005b6100f361077a565b604051610100919061114c565b60405180910390f35b610123600480360381019061011e9190610f40565b610784565b604051610130919061114c565b60405180910390f35b610153600480360381019061014e9190610f40565b6107c2565b604051610168999897969594939291906111de565b60405180910390f35b61018b600480360381019061018691906113b5565b610a15565b005b610195610c3f565b6040516101a2919061114c565b60405180910390f35b6101c560048036038101906101c09190610f40565b610c45565b6040516101d291906114bf565b60405180910390f35b6101f560048036038101906101f0919061110c565b610cec565b005b60608060606000806000806000806000808b81526020019081526020016000206040518061012001604052908160008201805461023390611510565b80601f016020809104026020016040519081016040528092919081815260200182805461025f90611510565b80156102ac5780601f10610281576101008083540402835291602001916102ac565b820191906000526020600020905b81548152906001019060200180831161028f57829003601f168201915b505050505081526020016001820180546102c590611510565b80601f01602080910402602001604051908101604052809291908181526020018280546102f190611510565b801561033e5780601f106103135761010080835404028352916020019161033e565b820191906000526020600020905b81548152906001019060200180831161032157829003601f168201915b5050505050815260200160028201805461035790611510565b80601f016020809104026020016040519081016040528092919081815260200182805461038390611510565b80156103d05780601f106103a5576101008083540402835291602001916103d0565b820191906000526020600020905b8154815290600101906020018083116103b357829003601f168201915b5050505050815260200160038201548152602001600482015481526020016005820160009054906101000a900473ffffffffffffffffffffffffffffffffffffffff1673ffffffffffffffffffffffffffffffffffffffff1673ffffffffffffffffffffffffffffffffffffffff1681526020016006820160009054906101000a900473ffffffffffffffffffffffffffffffffffffffff1673ffffffffffffffffffffffffffffffffffffffff1673ffffffffffffffffffffffffffffffffffffffff1681526020016007820160009054906101000a900473ffffffffffffffffffffffffffffffffffffffff1673ffffffffffffffffffffffffffffffffffffffff1673ffffffffffffffffffffffffffffffffffffffff1681526020016007820160149054906101000a900460ff16600281111561051457610513611167565b5b600281111561052657610525611167565b5b815250509050806000015181602001518260400151836060015184608001518560a001518660c001518760e001519850985098509850985098509850985050919395975091939597565b6001600281111561058457610583611167565b5b60008084815260200190815260200160002060070160149054906101000a900460ff1660028111156105b9576105b8611167565b5b146105f9576040517f08c379a00000000000000000000000000000000000000000000000000000000081526004016105f09061158d565b60405180910390fd5b60008083815260200190815260200160002060070160009054906101000a900473ffffffffffffffffffffffffffffffffffffffff1673ffffffffffffffffffffffffffffffffffffffff168173ffffffffffffffffffffffffffffffffffffffff161461069c576040517f08c379a0000000000000000000000000000000000000000000000000000000008152600401610693906115f9565b60405180910390fd5b600260008084815260200190815260200160002060070160146101000a81548160ff021916908360028111156106d5576106d4611167565b5b02179055508073ffffffffffffffffffffffffffffffffffffffff1660008084815260200190815260200160002060060160009054906101000a900473ffffffffffffffffffffffffffffffffffffffff1673ffffffffffffffffffffffffffffffffffffffff16837f73c7de824a86f5d23d116a547aa5d0ab600cd365ec23a2d8245a8b66e5a3b715600260405161076e919061165e565b60405180910390a45050565b6000600154905090565b600080600083815260200190815260200160002060070160149054906101000a900460ff1660028111156107bb576107ba611167565b5b9050919050565b60006020528060005260406000206000915090508060000180546107e590611510565b80601f016020809104026020016040519081016040528092919081815260200182805461081190611510565b801561085e5780601f106108335761010080835404028352916020019161085e565b820191906000526020600020905b81548152906001019060200180831161084157829003601f168201915b50505050509080600101805461087390611510565b80601f016020809104026020016040519081016040528092919081815260200182805461089f90611510565b80156108ec5780601f106108c1576101008083540402835291602001916108ec565b820191906000526020600020905b8154815290600101906020018083116108cf57829003601f168201915b50505050509080600201805461090190611510565b80601f016020809104026020016040519081016040528092919081815260200182805461092d90611510565b801561097a5780601f1061094f5761010080835404028352916020019161097a565b820191906000526020600020905b81548152906001019060200180831161095d57829003601f168201915b5050505050908060030154908060040154908060050160009054906101000a900473ffffffffffffffffffffffffffffffffffffffff16908060060160009054906101000a900473ffffffffffffffffffffffffffffffffffffffff16908060070160009054906101000a900473ffffffffffffffffffffffffffffffffffffffff16908060070160149054906101000a900460ff16905089565b60016000815480929190610a28906116a8565b91905055506040518061012001604052808981526020018881526020018781526020018681526020018581526020018473ffffffffffffffffffffffffffffffffffffffff1681526020018373ffffffffffffffffffffffffffffffffffffffff1681526020018273ffffffffffffffffffffffffffffffffffffffff16815260200160006002811115610abf57610abe611167565b5b81525060008060015481526020019081526020016000206000820151816000019081610aeb9190611892565b506020820151816001019081610b019190611892565b506040820151816002019081610b179190611892565b50606082015181600301556080820151816004015560a08201518160050160006101000a81548173ffffffffffffffffffffffffffffffffffffffff021916908373ffffffffffffffffffffffffffffffffffffffff16021790555060c08201518160060160006101000a81548173ffffffffffffffffffffffffffffffffffffffff021916908373ffffffffffffffffffffffffffffffffffffffff16021790555060e08201518160070160006101000a81548173ffffffffffffffffffffffffffffffffffffffff021916908373ffffffffffffffffffffffffffffffffffffffff1602179055506101008201518160070160146101000a81548160ff02191690836002811115610c2d57610c2c611167565b5b02179055509050505050505050505050565b60015481565b60606000808381526020019081526020016000206000018054610c6790611510565b80601f0160208091040260200160405190810160405280929190818152602001828054610c9390611510565b8015610ce05780601f10610cb557610100808354040283529160200191610ce0565b820191906000526020600020905b815481529060010190602001808311610cc357829003601f168201915b50505050509050919050565b60006002811115610d0057610cff611167565b5b60008084815260200190815260200160002060070160149054906101000a900460ff166002811115610d3557610d34611167565b5b14610d75576040517f08c379a0000000000000000000000000000000000000000000000000000000008152600401610d6c906119b0565b60405180910390fd5b60008083815260200190815260200160002060060160009054906101000a900473ffffffffffffffffffffffffffffffffffffffff1673ffffffffffffffffffffffffffffffffffffffff168173ffffffffffffffffffffffffffffffffffffffff1614610e18576040517f08c379a0000000000000000000000000000000000000000000000000000000008152600401610e0f90611a1c565b60405180910390fd5b600160008084815260200190815260200160002060070160146101000a81548160ff02191690836002811115610e5157610e50611167565b5b02179055508073ffffffffffffffffffffffffffffffffffffffff1660008084815260200190815260200160002060050160009054906101000a900473ffffffffffffffffffffffffffffffffffffffff1673ffffffffffffffffffffffffffffffffffffffff16837f73c7de824a86f5d23d116a547aa5d0ab600cd365ec23a2d8245a8b66e5a3b7156001604051610eea9190611a77565b60405180910390a45050565b6000604051905090565b600080fd5b600080fd5b6000819050919050565b610f1d81610f0a565b8114610f2857600080fd5b50565b600081359050610f3a81610f14565b92915050565b600060208284031215610f5657610f55610f00565b5b6000610f6484828501610f2b565b91505092915050565b600081519050919050565b600082825260208201905092915050565b60005b83811015610fa7578082015181840152602081019050610f8c565b60008484015250505050565b6000601f19601f8301169050919050565b6000610fcf82610f6d565b610fd98185610f78565b9350610fe9818560208601610f89565b610ff281610fb3565b840191505092915050565b61100681610f0a565b82525050565b600073ffffffffffffffffffffffffffffffffffffffff82169050919050565b60006110378261100c565b9050919050565b6110478161102c565b82525050565b6000610100820190508181036000830152611068818b610fc4565b9050818103602083015261107c818a610fc4565b905081810360408301526110908189610fc4565b905061109f6060830188610ffd565b6110ac6080830187610ffd565b6110b960a083018661103e565b6110c660c083018561103e565b6110d360e083018461103e565b9998505050505050505050565b6110e98161102c565b81146110f457600080fd5b50565b600081359050611106816110e0565b92915050565b6000806040838503121561112357611122610f00565b5b600061113185828601610f2b565b9250506020611142858286016110f7565b9150509250929050565b60006020820190506111616000830184610ffd565b92915050565b7f4e487b7100000000000000000000000000000000000000000000000000000000600052602160045260246000fd5b600381106111a7576111a6611167565b5b50565b60008190506111b882611196565b919050565b60006111c8826111aa565b9050919050565b6111d8816111bd565b82525050565b60006101208201905081810360008301526111f9818c610fc4565b9050818103602083015261120d818b610fc4565b90508181036040830152611221818a610fc4565b90506112306060830189610ffd565b61123d6080830188610ffd565b61124a60a083018761103e565b61125760c083018661103e565b61126460e083018561103e565b6112726101008301846111cf565b9a9950505050505050505050565b600080fd5b600080fd5b7f4e487b7100000000000000000000000000000000000000000000000000000000600052604160045260246000fd5b6112c282610fb3565b810181811067ffffffffffffffff821117156112e1576112e061128a565b5b80604052505050565b60006112f4610ef6565b905061130082826112b9565b919050565b600067ffffffffffffffff8211156113205761131f61128a565b5b61132982610fb3565b9050602081019050919050565b82818337600083830152505050565b600061135861135384611305565b6112ea565b90508281526020810184848401111561137457611373611285565b5b61137f848285611336565b509392505050565b600082601f83011261139c5761139b611280565b5b81356113ac848260208601611345565b91505092915050565b600080600080600080600080610100898b0312156113d6576113d5610f00565b5b600089013567ffffffffffffffff8111156113f4576113f3610f05565b5b6114008b828c01611387565b985050602089013567ffffffffffffffff81111561142157611420610f05565b5b61142d8b828c01611387565b975050604089013567ffffffffffffffff81111561144e5761144d610f05565b5b61145a8b828c01611387565b965050606061146b8b828c01610f2b565b955050608061147c8b828c01610f2b565b94505060a061148d8b828c016110f7565b93505060c061149e8b828c016110f7565b92505060e06114af8b828c016110f7565b9150509295985092959890939650565b600060208201905081810360008301526114d98184610fc4565b905092915050565b7f4e487b7100000000000000000000000000000000000000000000000000000000600052602260045260246000fd5b6000600282049050600182168061152857607f821691505b60208210810361153b5761153a6114e1565b5b50919050565b7f50726f64756374206e6f74207069636b65642075702079657400000000000000600082015250565b6000611577601983610f78565b915061158282611541565b602082019050919050565b600060208201905081810360008301526115a68161156a565b9050919050565b7f496e76616c696420537570706c69657220616464726573732e00000000000000600082015250565b60006115e3601983610f78565b91506115ee826115ad565b602082019050919050565b60006020820190508181036000830152611612816115d6565b9050919050565b6000819050919050565b6000819050919050565b600061164861164361163e84611619565b611623565b610f0a565b9050919050565b6116588161162d565b82525050565b6000602082019050611673600083018461164f565b92915050565b7f4e487b7100000000000000000000000000000000000000000000000000000000600052601160045260246000fd5b60006116b382610f0a565b91507fffffffffffffffffffffffffffffffffffffffffffffffffffffffffffffffff82036116e5576116e4611679565b5b600182019050919050565b60008190508160005260206000209050919050565b60006020601f8301049050919050565b600082821b905092915050565b6000600883026117527fffffffffffffffffffffffffffffffffffffffffffffffffffffffffffffffff82611715565b61175c8683611715565b95508019841693508086168417925050509392505050565b600061178f61178a61178584610f0a565b611623565b610f0a565b9050919050565b6000819050919050565b6117a983611774565b6117bd6117b582611796565b848454611722565b825550505050565b600090565b6117d26117c5565b6117dd8184846117a0565b505050565b5b81811015611801576117f66000826117ca565b6001810190506117e3565b5050565b601f82111561184657611817816116f0565b61182084611705565b8101602085101561182f578190505b61184361183b85611705565b8301826117e2565b50505b505050565b600082821c905092915050565b60006118696000198460080261184b565b1980831691505092915050565b60006118828383611858565b9150826002028217905092915050565b61189b82610f6d565b67ffffffffffffffff8111156118b4576118b361128a565b5b6118be8254611510565b6118c9828285611805565b600060209050601f8311600181146118fc57600084156118ea578287015190505b6118f48582611876565b86555061195c565b601f19841661190a866116f0565b60005b828110156119325784890151825560018201915060208501945060208101905061190d565b8683101561194f578489015161194b601f891682611858565b8355505b6001600288020188555050505b505050505050565b7f5061636b616765206d75737420626520617420537570706c6965722e00000000600082015250565b600061199a601c83610f78565b91506119a582611964565b602082019050919050565b600060208201905081810360008301526119c98161198d565b9050919050565b7f496e76616c6964207368697070657220616464726573732e0000000000000000600082015250565b6000611a06601883610f78565b9150611a11826119d0565b602082019050919050565b60006020820190508181036000830152611a35816119f9565b9050919050565b6000819050919050565b6000611a61611a5c611a5784611a3c565b611623565b610f0a565b9050919050565b611a7181611a46565b82525050565b6000602082019050611a8c6000830184611a68565b9291505056fea2646970667358221220e728c0d069ecb09301a2e6abac9886a1359a07b7b5777f8b290752a30d5c132464736f6c63430008180033",
  "linkReferences": {},
  "deployedLinkReferences": {}
}